:020000041000EA
:1000000000B5324B212058609868022188439860DF
:10001000D860186158612E4B002199600221596106
:100020000121F02299502B49196001219960352056
:1000300000F044F80222904214D00621196600F024
:1000400034F8196E01211966002018661A6600F04E
:100050002CF8196E196E196E052000F02FF8012189
:100060000842F9D1002199601B49196000215960AB
:100070001A491B48016001219960EB211966A021F2
:10008000196600F012F800219960164914480160C1
:100090000121996001BC002800D000471248134993
:1000A000086003C880F30888084703B5996A0420EC
:1000B0000142FBD001200142F8D103BD02B5186610
:1000C0001866FFF7F2FF186E186E02BD00000240BE
:1000D000000000180000070000035F00212200005C
:1000E000F4000018222000A00001001008ED00E03C
:1000F00000000000000000000000000074B24E7A12
:1001000000200420F7010010C3010010C5010010F9
:10011000C1010010C1010010C1010010C101001097
:10012000C1010010C1010010C1010010C701001081
:10013000C1010010C1010010C9010010CB01001065
:10014000CD010010CD010010CD010010CD01001037
:10015000CD010010CD010010CD010010CD01001027
:10016000CD010010CD010010CD010010CD01001017
:10017000CD010010CD010010CD010010CD01001007
:10018000CD010010CD010010CD010010CD010010F7
:10019000CD010010CD010010CD010010CD010010E7
:1001A000CD010010CD010010CD010010CD010010D7
:1001B000CD010010CD010010CD010010CD010010C7
:1001C00000BE00BE00BE00BE00BE00BE00F04BF888
:1001D000103800BEF2EB887198930010B8930010AD
:1001E0003402001090A31AE700202149086006C8D5
:1001F00081F3088810471F48006800282FD10DA4FC
:100200000ECC002902D000F012F8F9E71A491B4A77
:10021000002000E001C19142FCD1194988471949E9
:1002200088471949884700BEFDE701C901C29A42C3
:10023000FBD37047B8930010C0000020B00C002022
:10024000A89F00100000042000000420A89F0010B8
:1002500000100420001004200000000070470B482C
:1002600003F00AFD0047EFF30580C0B270470000BD
:1002700008ED00E0000000D0B00C0020A01A002023
:100280003D1E001025030010651F0010575600008A
:1002900006005250ABB360536C91001006005250F0
:1002A000861C03027C910010060052505422A29D2D
:1002B0008491001005005250DE65F468A89F00107C
:1002C000F8B5C04610B5064C2378002B07D1054B76
:1002D000002B02D0044800E000BF0123237010BDB2
:1002E000B80D002000000000C08D0010084B10B5B4
:1002F000002B03D00749084800E000BF0748036807
:10030000002B00D110BD064B002BFBD09847F9E71E
:1003100000000000BC0D0020C08D0010B00C0020BB
:1003200000000000F8B5CE464746D025802480B5B1
:1003300004F0F2FD00F056F8152000F0E7F82D0665
:10034000A403214BAC621E68204B2148196804F0BD
:10035000D7FD31001F4804F0D3FD69681E488902AB
:10036000C90F04F0CDFD00201C4F1D4EA846A1462C
:1003700004F0D6FD702825D043464A465B68012527
:1003800013420BD10024385900F090F8FA200834B9
:10039000400000F0F5FF202CF5D103E0002000F034
:1003A00085F800252900300004F0AAFDFF21300067
:1003B00004F0A6FD0A2000F0E3FF002004F0B0FDE9
:1003C0007028D9D10025DDE7A8400140AC400140AC
:1003D000E08D0010F88D0010108E0010C08D001000
:1003E000308E001070B52B4986B02B4807F086FB85
:1003F00005000B2000F08AF8D02380221B06120192
:100400005A6206215A610C2000F068F8012300218D
:1004100000930C22204807F0D9FB80235B02029353
:10042000EB1CEA011B0313431C4A052013400393F2
:100430001B4B05931B4B049301F018FF04F0B8FA13
:10044000194904F09AFA061C04F0DAFA84B2002082
:10045000002C0ED0200004F0ABFA011C301C04F07C
:1004600086FA8721C90504F09CFA04F0C9FAC0B2E3
:100470000002240404430294074C02AB2A0000212A
:10048000200007F0EBFB012223681343236006B032
:1004900070BDC046588E001000002050FFFFFF9F27
:1004A00000300020000006400024F44A0200030A45
:1004B000FF20FF210002034009041002084003430B
:1004C000FF20802110401843034A0002490253686C
:1004D0000B42FCD11061704700002050094A830094
:1004E00094464022634410B51C68C0006240C0249A
:1004F00014408022520113431C60034B9C4660440D
:10050000416010BD04C00140004001400123D022E1
:100510008340120693629361094A83009446402205
:1005200063441968C0004A40C02111408022520132
:1005300013431960034B9C46052360444360704796
:1005400004C0014000400140EFF3108072B6034A3E
:100550001368002BFCD0BFF35F8F70472C0100D0D5
:10056000BFF35F8F0022024B1A6080F31088704740
:100570002C0100D0F8B5EFF3108772B60D4E33683A
:10058000002BFCD0BFF35F8F0725CB08C0180123D9
:100590000D40AB401D000478254007D12343037074
:1005A000BFF35F8F356087F31088F8BD100001F04E
:1005B000DBFCC0462C0100D0F8B5CE4647468C4641
:1005C00080B5EFF3108872B61D4D2C68002CFCD05E
:1005D000BFF35F8F9A4219D80721012511408D4042
:1005E000D4080419267835421FD0072189460639D8
:1005F00009E04D460F001540AF40D4080419267895
:100600003D00374211D001329342F2D201204042E4
:10061000BFF35F8F00220A4B1A6088F3108800280E
:1006200007DB0CBC90469946F8BD35432570100099
:10063000EEE76346002BF4D0089801F095FCC04625
:100640002C0100D0024B18688007C00F7047C046CD
:1006500000C006400021044B044ABFF35F8F02C371
:100660009342FAD17047C046000100D0800100D00B
:10067000044A1078431CDBB2172B00D910231370E7
:100680007047C0467803002000B5054B83B00100D9
:10069000009318221F230348FFF78EFF03B000BD0D
:1006A000688E0010B412002001238340002902D17B
:1006B000034A13607047034A1360034A1360F9E763
:1006C00080E100E080E200E000E100E001238340FF
:1006D000014A13607047C04600E200E0084B10304A
:1006E0009B688000C358002B07D0064A00209B1A45
:1006F0002F229A424041C0B270470020FCE7C0461A
:1007000000ED00E07C030020024B10309B6880006D
:10071000C058704700ED00E070B50D00EFF3108693
:1007200072B60F4A1368002BFCD0BFF35F8F0D4BDE
:1007300010309B6884001B590B4A934203D09D42A2
:1007400001D001F029FC074B9B681D51BFF35F8F5F
:10075000BFF35F8F0022024B1A6086F3108870BDD2
:10076000240100D000ED00E0CD010010F0B55746A7
:100770004546DE464E46E0B5804683B08A461700C1
:10078000EFF3108972B6604A1368002BFCD0BFF3F8
:100790005F8F5E4B9B461B785BB20193002B00DAA8
:1007A000ABE09C465A465C00594D6444A4002E19A7
:1007B000B3791370574B9A68434610339B00D15856
:1007C00098464B1B2F2B2DD9534B994201D001F04A
:1007D000E3FB524B02343380514B2D19043B5D1B1C
:1007E0002D05504B6D0D1D434F4B0121B380FF2351
:1007F000B37153467580F771B36031434246454B40
:100800009B689950BFF35F8FBFF35F8F00223E4B11
:100810001A6089F3108803B03CBC90469946A24602
:10082000AB46F0BD01230A009A43D3799446BB42FC
:100830003ED906201056002805DA20E0062018567A
:100840001A0000281BDB43001B189B00EB18D8790B
:10085000B842F3D8002A2BD006201056131D9C4610
:1008600000280EDB04342D19E024938824025B0554
:100870001B1563445B1B1B055B0D234303E0131D2A
:100880009C46BD231B026546341F641B2405254D71
:10089000640D2C4394806C4624799471B380534644
:1008A000224AB0713280813A7280F771B360A5E755
:1008B0001F4A63465B1B5B415A43120D174BA11C39
:1008C0003380174B6918043B5B1A1B0515495B0DF8
:1008D0000B43738063460434043B2D195D1B2D05C7
:1008E00053466D0D2943B180B27101216246B36058
:1008F000104BF7713143136080E701F04DFB5B460D
:100900001B785BB201934CE7240100D0B2170020A2
:100910007C03002000ED00E0CD01001000A1FFFFEE
:10092000AC03002000E0FFFF00BDFFFF0148000016
:10093000AAAA000001488047F0B5DE4657464E4659
:100940004546E0B50C0083B0EFF3108B72B65B4AFE
:100950001368002BFCD0BFF35F8F102290468044B9
:100960004246574B97009B68DD59564B99469D422E
:1009700006D0A54200D177E0534EAB1B2F2B12D9E6
:100980004F4B9B68DD51BFF35F8FBFF35F8F00223A
:100990004A4B1A608BF3108803B03CBC90469946D2
:1009A000A246AB46F0BD012383409A465246474BD0
:1009B0001B681A4000925246454B1A60BFF35F8F86
:1009C000FFF751FC0190002843D101232A009A43EC
:1009D00093689C424DD006215156002905DA31E03A
:1009E000062159561A0000292CDB4B005B189B008E
:1009F000F31899688C42F3D10621595600293BDB44
:100A00004A005018800034188046A0689860E07949
:100A1000D871062020569871A0797F2826D8A488FE
:100A2000F01A6405241544440019E0240005400D23
:100A30002402204398805218264B9200B6181A7848
:100A40001970B271009B002B08D15246204B1A60DE
:100A500096E78045B9D001F09FFAB6E752461E4BA3
:100A60001A601A4B1A608BE71D0089E7BD2000024F
:100A7000E0E713000022BFE7019900290FD1002A07
:100A80001AD0FF3191711549918012490A789A71F3
:100A9000134A9B1B5B415A43120D0A70D2E7114A5D
:100AA0001149D21A083A5002400D014399800F496A
:100AB00052080A43DA80C5E74D46E6E7240100D034
:100AC00000ED00E0CD0100107C03002000E100E01B
:100AD00080E100E0B217002080E200E000BDFFFFEF
:100AE000AAAA0000B603002000F0FFFF00F8FFFFF5
:100AF000F8B5012504000543FFF7B5FBEFF31086B9
:100B000072B6214A1368002BFCD0BFF35F8F1F4AD7
:100B10001F4B2100891A49414B431B0D1D49800081
:100B20008F685BB23F58BD4226D00621515699428C
:100B300026D012215156994224D01E215156994255
:100B400010D02A215156032099420CD0124A117814
:100B50001370A171BFF35F8F00220B4B1A6086F3F5
:100B60001088F8BD02204100091889005218FF21A1
:100B700091710A499180E9E78A6809491150E5E7CE
:100B80000020F0E70120EEE7240100D07C030020E4
:100B9000AAAA000000ED00E0B217002000BDFFFF90
:100BA000CD010010084B094A1360094A1360094A35
:100BB0001360094A1360094A1360094A1360094A1D
:100BC0001360094A136070478080808000E400E071
:100BD00004E400E008E400E00CE400E010E400E0DD
:100BE00014E400E018E400E01CE400E0D02300B5C9
:100BF0001B0601001868074B83B01818064B00222B
:100C000000930523FFF7D8FC002801DB1F23181AE7
:100C100003B000BDAC170020848E0010024B9C4630
:100C200061448900016070474000003483680B48CC
:100C300010B5844661446244090112019A1859189A
:100C400054684B6801209C4201D802D00020C0B2F9
:100C500010BD12680B689A42F9D8F7E7FFFFFF0F43
:100C60000A4B1968EFF3108072B60A68002AFCD0AC
:100C7000BFF35F8F1B68BFF35F8F00221A6080F3A2
:100C8000108840BF002000217047C0467C1700201C
:100C9000F8B54E464546DE465746E0B51F000CAB5C
:100CA0001D780DAB1B7881469B460368160098465D
:100CB000002D08D1987B002841D13CBC9046994634
:100CC000A246AB46F8BD28006C006419033C384BC3
:100CD00000229C464B469B6860449C4600010A9B50
:100CE000604483600B9B06604760C36043461B689B
:100CF0001B199A705A701A7043465B7B9A46002BF8
:100D00003BD043462A00986851465B689847434663
:100D10001A68002824D053465B005344033BD31881
:100D200014195246A2701A78002A00D062701D7001
:100D30005246434628005A73AA45BED11FE0414699
:100D400044001B682418033C1B195A788A73002A34
:100D500000D1CA73002205009A705A701A70B6E763
:100D600053465B005344033BD31814199D702278FB
:100D7000002A00D05A705346237043465D734B4699
:100D80003200187D3B0000F0E3FC041E07D05B46F8
:100D9000002B04D14B462900186800F0F7FE0E9B8B
:100DA000002B02D01C70280087E7280085E7C0468A
:100DB000FFFFFF0F744B8200F0B5D4580023DE46CE
:100DC00057464E4645469B46E0B58DB00B9000F029
:100DD00033FC6268EFF3108572B61368002BFCD009
:100DE000BFF35F8F23689C465B7B9946002B00D145
:100DF00081E0A268654B90464B441B0198444346F2
:100E00001E685F6832003B00121A8B41002B00DC29
:100E100084E03B0032000B9800F09AFC0023002293
:100E200008920993002300279A466368BFF35F8FF7
:100E30005A461A6085F310885346002B64D00A9BEB
:100E4000390018024B461843D04762680690079154
:100E5000EFF3108872B6564645461368002BFCD057
:100E6000B246A846BFF35F8F0699079A002A25DA93
:100E70002369002B28D0089D099E6D1A96412A00EF
:100E80003300089D099E9E4200D971E000D173E0B5
:100E90005946049101210391494602915146019717
:100EA00000912000FFF7F4FE5B4623616368BFF307
:100EB0005F8F5A461A6088F3108888E71300194339
:100EC00002D02369002B46D12368DA7B002A07D0A1
:100ED00051008A1819688C4649466244033A517099
:100EE0004A46DA73E2684B469446013B63441A78FB
:100EF00001321A70D8E700230022089209930023D8
:100F000000279A46002090E7002800D05FE70DB048
:100F10003CBC90469946A246AB46F0BD002B02D1A0
:100F2000002A00D075E70021604600F083FD4346AB
:100F30001A685B680892099343469B689A46434641
:100F4000DF68E3684B44013B1B780A931B0218439C
:100F50002061002069E700F06FFB069A079B1218DA
:100F60004B41994204D800D092E7904200D88FE7D5
:100F700001225242D3178BE7954200D888E701221D
:100F80005242D31784E7C04660170020FFFFFF0FCF
:100F900010B5124C6368002B04D00A211048FFF7EB
:100FA0003DFE10BD23000F4A1021206800F024FDF3
:100FB000032000F035FB032000F038FC0A49032031
:100FC00000F080FBFFF754FB084B9C460323604472
:100FD0002375074B80006060DC60DEE7C4030020FF
:100FE0007C1700202D0C0010B50D001040000034BF
:100FF0006017002000487047C4030020F0B5574632
:10100000DE4645464E46E0B585B00092019310ABF2
:101010001B7807009B4600239A4698467A68EFF3B0
:10102000108972B61368002BFCD0BFF35F8F3E6847
:10103000B47B002C00D173E065002D193368033DAB
:101040005B195A78B273002A00D1F27342469A7043
:101050005A701A70BA68504B94460099019AE31876
:101060001B01634419605A600E9A9A600F9ADA6005
:10107000424633685B199A705A701A70737B0393F7
:10108000002B00D176E0190073682200B0689C46FE
:10109000E047326800285ED0039855198446430023
:1010A0006344033BD318A8701A78002A00D06FE07D
:1010B0001C70707384425ED0FB681B19013B18786A
:1010C0007B68BFF35F8F42461A6089F310885346EE
:1010D000002B08D10002204305B03CBC9046994645
:1010E000A246AB46F0BD5B46002B53D00E9B0F993A
:1010F00000209847030004000D000B434AD000294C
:1011000017DA0098019902000B00121BAB419942BB
:101110001AD801D1904217D800920193DA467DE7A0
:101120007B68BFF35F8F1C6089F310880120404209
:10113000D2E700F081FA24184D4100940195A942AC
:1011400002D8EBD1A042E9D901235B42DC17DA4691
:101150000093019462E7039955198C464B00634450
:10116000033BD3189C702A78002A00D05A706B4633
:101170001B7B2B707473387D009A019B00F0E8FA9A
:101180008246002898D02100386800F0FFFC93E7E1
:101190006A708DE700209FE7FFFFFF0FF0B557460D
:1011A0004E464546DE460400E0B50D000626764272
:1011B000F71736196F4185B08F4255D852D000F0DD
:1011C0003BFA32003B00121A8B41002B56DD674B75
:1011D0009A465A68EFF3108B72B61368002BFCD056
:1011E000BFF35F8F53461B6899469B7B9846002B45
:1011F00049D153465B68BFF35F8F00221A608BF3BF
:1012000010884346002B11D0BC46B046009401958F
:1012100000266546564F574A7B6AAB4211D3B96ADE
:10122000414501D2AB420CD0009C019D2000290019
:1012300000F038FA05B03CBC90469946A246AB4651
:10124000F0BD1168EFF3108072B60B68002BFCD074
:10125000BFF35F8F1368BFF35F8F1E6080F310884A
:1012600020BFD9E78642AAD90026002700F0E4F97A
:1012700032003B00121A8B41002BA8DC002BD5D189
:10128000002AA4D1D2E75B0043444A46033B9C4674
:10129000494612680093624453788B73002B00D147
:1012A000CB73002351469370537013708968324A90
:1012B0008C46424431491201624416605760916085
:1012C000D36000994A468C4612686244937053700A
:1012D00013704B465B7B0393002B35D019004846B7
:1012E0004B46424680685B689847002819D00398AF
:1012F000009984464A46430063448C466946126816
:10130000097B033BD318624491701978002900D0FF
:10131000517042461A704B465873804500D068E7BA
:1013200015E04B4603981A688446009BD118430089
:101330006344033BD31842469A700A78002A00D0CF
:101340005A706B461B7B0B704B4642465A73534692
:101350003200187D3B0000F0FBF9002800D148E77F
:1013600053464146186800F011FC42E7C4030020D0
:10137000004005407C170020FFFFFF0F610C0010AC
:1013800070B5060000F058F9FA2204000D00920032
:1013900000233000002103F0CDFA001969418D428D
:1013A00005D901204042C117FFF7F8FE70BD8D42FC
:1013B000FAD18442F5D8F7E7F0B54E464546DE4609
:1013C0005746E0B56A4C83B0814688466268EFF3C1
:1013D000108A72B61368002BFCD0BFF35F8F2668AB
:1013E000B57B002D46D06F007F193368033F019510
:1013F000DB195A78B273002A00D1F27300229A7076
:101400005A701A70A1685B4B8C464946EB181B0159
:1014100063441960414659605749DA6099603368FE
:10142000DB199A705A701A70737B9B46002B00D19F
:1014300089E02A001900B06873689847326800286C
:1014400000D173E05B465B005B44033BD318D719C4
:101450005A46BA701A78002A00D07A701D705B461E
:1014600073735D4500D16FE00026E3685B19013BB3
:101470001B7802E00023002601936268BFF35F8FB0
:10148000002111608AF31088002D44D0002E42D133
:10149000019A1B02134320BF6168EFF3108772B6F5
:1014A0000A68002AFCD0BFF35F8F2068D9B2427B64
:1014B0008A4256D0FF221A405500AA460568924437
:1014C000AC4655466544033DAD78002D29D0E5680E
:1014D0001B0AAC466244013A12789A4244D06368CF
:1014E000BFF35F8F00221A6087F31088234A536A84
:1014F000984508D8926A01264A4504D24246D31A32
:101500005E1EB341DEB2300003B03CBC904699464B
:10151000A246AB46F0BD194A0026536A9845F2D858
:10152000E8E722699342DAD12561D8E75B465B00A0
:101530005B44033BD318D7199D703A78002A00D03A
:101540005A705B463B707573207D4A46434600F0F7
:10155000FFF8061E00D187E72900206800F016FB7F
:1015600083E7FF221A40B2E700F010FBB7E7C0465E
:10157000C4030020FFFFFF0F610C00100040054076
:10158000F8B5CE46474680B5EFF305833F221340BA
:1015900018001038EFF3108C72B61B490A68002A45
:1015A000FCD0BFF35F8F01210F008740174D184A11
:1015B0006F63147891462200C2409046464600224E
:1015C00031420BD0696A134D884681004D59A845B8
:1015D00012D3114BBC43CA584B461C70BFF35F8FEC
:1015E0000021094B19608CF31088002A00D0904725
:1015F0000CBC90469946F8BD08499B008846434478
:1016000019681960EAE7C046280100D0004005408B
:10161000B517002088170020A4110020D03F0540F6
:1016200010B50100024A0348FEF7A4FF10BDC046F2
:10163000A88E0010B1170020044A516A00E019007A
:10164000906A536A9942FAD17047C04600400540FB
:10165000134A30B5546A00E01C00956A536AA342ED
:10166000FAD12A002300801859418C4211D80ED09B
:101670000C000B4A536AA342FCD307D1084A02E08C
:10168000516A994202D1916A8142F9D330BD8542B3
:10169000EED9012401204042C1176442E9E7C04667
:1016A00000400540064A536A9942FCD807D1044BD2
:1016B00002E05A6A914202D19A6A8242F9D3704793
:1016C0000040054070B504000D00EFF3108672B6BF
:1016D0001A4A1368002BFCD0BFF35F8F002D1BD07C
:1016E0002000FFF711F8164988420AD02000FFF7C2
:1016F00013F801212000FEF7D7FF0123A340114A70
:101700001360114BA400E550BFF35F8F00220B4B19
:101710001A6086F3108870BD0B4BA200D5500122D1
:10172000A2400A4920000B7893430B700449FFF74D
:1017300003F900212000FEF7B7FFE5E7280100D0FC
:101740008115001038600540A4110020B517002055
:10175000F0B5D6464F4646462F4CC0B5656A00E008
:101760000D00A66A616AA942FAD1AB4249D9EFF3EA
:10177000108972B6294C21680029FCD0BFF35F8F15
:101780000126274986408C460978264D0F003743AD
:101790008846F9B28A46614654460C701E49041DBB
:1017A000A4004E636250840063510D6A00243542E8
:1017B0001AD04D6A00E025008F6A4C6AAC42FAD11B
:1017C000AB4224D801D1BA4221D8D04521D0124B06
:1017D000154A1E625E631F2318401E3B8340136040
:1017E0006346424601241A70BFF35F8F00220B4B01
:1017F0001A6089F3108820001CBC90469946A246C6
:10180000F0BDAB4201D1B242B1D80124F3E70024CC
:10181000EAE70124E8E7C04600400540280100D07F
:10182000B51700208817002080E200E010B5EFF324
:10183000108472B60A490B68002BFCD0BFF35F8F8F
:1018400001238340074A0848136202789A430270D2
:10185000BFF35F8F00230B6084F3108810BDC04678
:10186000280100D000400540B5170020F8B54E46CD
:101870004546DE465746E0B54C0064180368033C15
:101880001A190D00517806008946002906D1280052
:101890003CBC90469946A246AB46F8BD4F004F442B
:1018A000033FD81941788846002141705170002DBE
:1018B00012D073684A462900B068984733680028F8
:1018C00073D0DF191A19BD701178002900D0797012
:1018D00049462700117000E04D464246002AD6D006
:1018E00054004444033C1A1951788946002911D107
:1018F000736842462900B06898473368002849D089
:101900001C19DF19A5703B78002B00D0637043468B
:101910003B70BCE74900494403398A46534459782F
:101920008B4600215970517073684A464146B06831
:1019300098473368002843D152461C199A184B46E1
:10194000A3701378002B00D0637043465446C846FA
:1019500013705B46002BCBD059463000FFF786FF53
:1019600081460028C4D002004146B0687368984799
:10197000326800282FD04B465B004B44033B1119C3
:10198000D31842469A700A78002A00D05A704B4603
:101990000B70ADE71C19DF194346BB702378002B91
:1019A00000D07B702570454671E749461C19DA194D
:1019B000A1701178002900D0617015704D468CE738
:1019C00041461A19534499701178002900D0597072
:1019D0004B461370BDE74B465B004B44033BD118AD
:1019E00014194A46A2700A78002A00D06270424652
:1019F0001C000A70C8467BE710B583600023CCB298
:101A000043730133047342608373C4730068012C11
:101A100007D90123421C0133DBB2137003329C420D
:101A2000F9D8FF2319404B005918002340180338F8
:101A3000437010BDF0B54E4657464546DE46E0B50C
:101A4000477B03687C00E419033C1A19167883B0BD
:101A500005008946002E1ED1002911D0C07B002828
:101A600069D041000918591803394F70EF73002EDF
:101A700006D07100891903398846002143449970C2
:101A80000023380053706E7303B03CBC90469946F7
:101A9000A246AB46F0BD7100891903398846591832
:101AA00048788246002807D149460029E5D0E87BDE
:101AB0000028D6D1EF73DCE742005244033A944643
:101AC000019263445A78934600225A704A706B68B8
:101AD00052463100A86898472B68002832D041460A
:101AE00001985A1819188E701078002825D151467F
:101AF00011705A46002A23D059462800FFF7B6FE37
:101B0000824600281BD002006B683100A868984705
:101B10002B68002825D0424699185246520052445C
:101B2000033A9A1896700878002800D050705246F0
:101B30000A701A19B8E7EF73A2E74870D7E72B6865
:101B40001A19B1E741465046019A59189A188870F7
:101B50001078002800D048701670019A56469046BA
:101B6000C7E752465100514403395A18404693463C
:101B70005246181882705A461278002A00D04270D5
:101B80005A46884616701A1956468DE7F0B54546EE
:101B9000DE4657464E46E0B50C0083B005000022F5
:101BA00000293DD0477B0168BC426BD066003619E6
:101BB000033E88198378002B32D05A00D318033B98
:101BC000CB181A78944202D143E0002A08D053007F
:101BD0009B18033BCB185A789442F6D142785A703E
:101BE00000238370437003789846002B25D1EA7B4D
:101BF000002A1DD053009B18CB18033B5C70434652
:101C0000EC73002B00D171E05C0000234444033CE2
:101C100009198B704370002F1ED1434601226B734C
:101C2000100003B03CBC90469946A246AB46F0BDBE
:101C3000B846EC7300234370EFE719002800FFF764
:101C400015FE2968EA7B80466F7B8819002AD6D06A
:101C5000D0E742781A70C3E742463900A8686B683B
:101C600098472A68002824D07B00DB191419033B0D
:101C7000D318A7701A78002A00D062704246B8467E
:101C80001A70CAE77E00F619033E8B191878804651
:101C900000281BD1E87B002804D0420012188A18C3
:101CA000033A5470EC7300225A70434601326B734E
:101CB000B6E77B00DB19033B1419D31842469A7030
:101CC0002278002A00D05A702770A6E744004444C6
:101CD000E01E019008184478A246002C08D1EC7B45
:101CE000002C76D1EF7300228270DCE7B846A1E7C2
:101CF00063005344033B994649444B784A70427011
:101D00009B4622006B684146A86898472B680028CC
:101D10004BD049464046019C59181A1988701078D2
:101D2000002850D15146A14611705A46002A20D0B1
:101D300059462800FFF79AFD041E19D002004146BB
:101D4000A8686B68984700281ED04A4641462B6811
:101D5000981862001219033A9A18917001780029B4
:101D600000D051700470E97B002905D19B19B9E7B7
:101D70002B684A469818F6E74A0052189A18033A10
:101D800057709B19EF73AEE74B4629686000001946
:101D90000338CB1808189C700278002A00D05A70BB
:101DA0004346A04603708B1999E74A469818019A52
:101DB0009C185246A2700278002A00D062704246F7
:101DC000D0460270B1E7487051461170019A9146B1
:101DD000ABE7032262438A18033A577082E7C04692
:101DE00010B50400FEF744FC01002000FEF716FFCA
:101DF000FF232371BFF35F8F10BDC04610B50400F1
:101E0000FEF736FC01002000FEF708FFFF232371D8
:101E100000236371BFF35F8F10BDC04610B504008F
:101E20000120FEF731FC044B9C466044800020609A
:101E3000BFF35F8F10BDC046400000342D4A2E4BCB
:101E400070B51A602D4A2E4B2E491A6010008B680F
:101E50009843FBD12C4E2D4B9E420AD2F5430024D1
:101E6000ED18AD080135A300F35801349847AC4292
:101E7000F9D100F097F8264A214B1A60214A93685D
:101E8000DB018033FBD14022224B234C234D9A6748
:101E90005A671A67DA66AC4208D223682000002B22
:101EA00022D00834FFF7AAFFAC42F6D31C4D1D4CDC
:101EB000C022A168280002F001FEA560FEF7CAFB5F
:101EC000FEF770FEFFF764F8174E184B9E420AD2D9
:101ED000F5430024ED18AD080135A300F358013493
:101EE0009847A542F9D170BD0834FFF779FFAC429D
:101EF000D3D3DBE7BFCDFBFE00E00040FE7F3C001C
:101F000000F0004000C00040980C0020A80C002009
:101F1000FFFFFF0100F00140900C0020980C002012
:101F20000000002000ED00E0A80C0020B00C002014
:101F3000094A1368002B06D008491818884208D8A7
:101F4000106018007047064B044918181360884247
:101F5000F6D901204042F5E750130020000004208C
:101F6000A01A002000BEFDE70FB400B5084883B0FA
:101F700002F03AFE049B002B07D005A9180001913E
:101F800001F05AFE034802F02FFE00BEFDE7C046F6
:101F9000D88E00100C8E001010B50148FFF7E4FF3A
:101FA000CC8E001030B50C2083B000F0B3F9FEF7F2
:101FB00049FB00280ED0964B964A1A605A609A60E8
:101FC000DA601A615A619A61DA611A62924A5A6257
:101FD00003B030BD914CA06700F0EEF90122904BA8
:101FE0001A60636C012BFCD103228E4B1A608B4A62
:101FF000936B012BFCD1013300938B4A04330121F5
:102000008A4800F039F90523894A0093012189485B
:1020100000F032F9884B5A68FF2A02D88022520019
:102020005A6080227A4C7F4B21691201824D1A60DE
:10203000002900D0E5E0E0217F4B02201A68114022
:10204000802252012A43116019684840032101404F
:10205000116004219A681142FCD0802280219201F3
:102060002A4309011160802252005A60734B236198
:10207000734B5968FF2900D8C1E00322684B7048B0
:102080001A60012103009A681142FCD0E0251A6809
:10209000154080225201024315601B684B4003210A
:1020A000194011600221664A93681942FCD08023CE
:1020B00080219B010343090119608021614B490084
:1020C00051606361604B5A68FF2A00D859608022D2
:1020D0005E4BE16912015C4D1A60002905D0606910
:1020E00001F024FE01300138FDD1E02256490B6891
:1020F0001A4080235B012B431A60802380229B01BE
:102100002B4312011A608022424B52004A60E36165
:102110004F4B5968FF2900D85A6080224D4B216AE5
:1021200012014B4D1A60002905D0606901F0FEFDD7
:1021300001300138FDD1E02245490B681A40802367
:102140005B012B431A60802380229B012B431201E9
:102150001A6080235B004B602E4B3F4A23623F4B4B
:102160005968914201D801325A6080223C4B616A21
:1021700012013A4D1A60002905D0606901F0D6FDC0
:1021800001300138FDD1E02234490B681A40802328
:102190005B012B431A60802380229B012B43120199
:1021A0001A608023DB024B601B4B63622D4B5A6825
:1021B000FF2A02D8802252005A6080222A4BA1694D
:1021C0001201284D1A60002905D0606901F0AEFDAA
:1021D00001300138FDD1E02222490B681A408023EA
:1021E0005B012B431A60802380229B012B43120149
:1021F0001A6080235B004B60124BA361E8E65A60D3
:102200003BE7606901F092FD01300138FDD112E732
:10221000B8120020006CDC021BB7000000800040F8
:102220003CB0004030B00040002F685900800240B0
:10223000008C864700C0024030800040001BB70081
:102240003C800040405973075480004054B0004027
:102250006080004060B00040FFFF03006C800040E1
:102260006CB000404880004048B00040014B800006
:10227000C0587047B8120020F8B504000C201700B1
:102280001D000E0001F052FD1D494143380001F0D0
:102290004DFD069A2B04120313432268002A1CDB0F
:1022A000184A8021944229D04901174A174D1160DC
:1022B000174A11600F00AA689743FBD1C021221D65
:1022C0008901114321222660A0600A602268002A49
:1022D000FCDAE36008230B60F8BD3F2221680A4066
:1022E0009642DDD1A2681205120D9042D8D1EE219E
:1022F000E268C9020A409342D2D1EDE78901D4E7EE
:1023000040420F0000C0024000E0004000C000401A
:1023100000F0004080239B001843014BD8627047B7
:102320000080054010B580241A4BE4051C6000288D
:102330001AD00123184C1843184BDC61184C444048
:102340001C62596298628021124BC90519601548B8
:1023500015490860E021C9041960002A07D18022CC
:10236000124B12061A6010BD0C4BD861EBE7FA2332
:10237000DB005A430E4B9A4208D80E4B1A60074BAB
:102380005A608022094BD2051A60ECE7094A1360B3
:102390001A00F4E700B00540D3C007B00080054044
:1023A0002D3FF84FFCFF01000820014000A0054030
:1023B000FFFFFF0058170020AA23064A1B011360E5
:1023C0002F230549D360054B19605368002BFCDAB5
:1023D0007047C0460040024000B0FA000060024072
:1023E0007047C04610B5002803D04A680B6811003A
:1023F000984710BD10B5002800D110BD0B4B1C68CC
:10240000A2689368013B9360002B04DB1368591C9E
:1024100011601870F1E791698B4201DB0A28F5D150
:102420000100200005F06AFFE7E7C04650040020E5
:10243000F0B54546DE4657464E46E0B583B0994670
:102440000EAB1D78119B88469B4602231299009281
:102450000B4007000D9C109A0193002B28D15B467E
:10246000002B00D092E0944222D201260E401F2C75
:102470001ED80C9B30201B1902E00133202C03D006
:1024800001341870A242F8D8002E11D0A3450FD9FC
:102490000C9B30201B195E461F2C04D987E00133AA
:1024A000202C00D1A7E001341870B442F7D1A34624
:1024B000CB0611D54B0502D4002C00D07CE00F9B3D
:1024C000102B00D1A0E0022B00D1A7E01F2C11D8C7
:1024D00030230C9A135501341F2C0BD8002D00D03B
:1024E00079E04B0700D588E00B0733D520230C9A01
:1024F000135501348B0730D0009E2500A2463200D0
:102500004446B0460C9B013D561C585D21004B468D
:10251000B8473200002DF5D14646A046544636193C
:10252000019B002B0ED0009D731B5B450AD232002D
:10253000444601364B4621002020B8473200731B29
:102540005B45F6D3300003B03CBC90469946A246AA
:10255000AB46F0BD009E8B0715D15C456ED2009A4C
:102560000D9413005B441D1B0D9B44469846561C5E
:102570004B4621002020B8473200B542F7D14346F0
:10258000A0461C000D93002CB7D1C9E701260E40D0
:1025900028D0002D2AD10C230B4227D1944200D3FE
:1025A00074E71F2C00D864E7A34500D880E7CB066A
:1025B000A0D54B0500D582E7A24202D05C4500D0F1
:1025C0007DE7631E002B3BD00F9A023C102A1BD0E4
:1025D0001C00130077E72D230C9A135501348B0749
:1025E000BBD089E7944200D241E761E701235B4217
:1025F0009C46E344D2E7B346D9E72B230C9A135504
:1026000001348B07A9D077E78B060FD41F2C00D994
:1026100070E778230C9A1355013457E71F2C00D923
:1026200068E70C9A6033135501344FE71F2C00D92B
:1026300060E758230C9A1355013447E7009EA2E740
:1026400000243CE7F0B5DE4657464E464546E0B529
:1026500097B005000E0093461F00209A219B1000A2
:10266000190001F02CFE002800D0D5E22098219915
:102670000122BD4B524201F00FFE002800D081E143
:10268000209821990122B94B524201F013FE0028F3
:1026900000D017E1209821990022B54B01F00AFEE5
:1026A000002800D0BCE1209821990022B14B01F014
:1026B000F3FD002800D0B3E12098219900220023E7
:1026C00001F0EAFD002800D054E200230D9380239E
:1026D000249ADB001A40914600D007E20023A64C62
:1026E0000893099406240EAB07932098219901F0D2
:1026F00011FE80460C9001F0F5FD02000B002098C1
:10270000219901F056FD089A099B01F082FD0A907B
:102710000B9101F023FE824601F0E0FD02000B0068
:102720000A980B9901F045FD0022944B0A900B91F9
:1027300001F0C0FD002800D1C5E101239C46E24420
:10274000504601F0CBFD089A099B01F0ABFD002833
:1027500000D030E2002C00D074E10C9C200001F08D
:10276000C1FD02000B002098219901F022FD0022FA
:10277000824B0890099101F08FFD002800D10AE2F8
:102780004B46202B00D196E15C1C0C9B0A211800C3
:10279000984601F0A3FA4A46079B303199544046C7
:1027A0000A2101F09BFA079B80469946A144002824
:1027B0001BD02A00330025004E46444699469046D9
:1027C000202D00D125E220000A2101F087FA3031C6
:1027D000317020000A2101F081FA01350400013630
:1027E0000028EDD12C004E4645460323249A134081
:1027F000012B00D19BE120229246202C0CD00D9A77
:10280000002A00D0C1E1249A520700D44CE2621C95
:1028100092462B2207990A555A460892002B17D147
:10282000239B9A4500D34FE25B441C005346E41AB5
:10283000B84637002E002500541C4346390020209E
:10284000B0472200AC42F7D135003E00474608941D
:1028500053465C1E079B08AA9C4617236444944673
:102860006344B946984637002E00089A551C2078D4
:102870004B463900013CB0472A00A045F6D1089BE1
:10288000350053441C00249B3E009B0712D55B4639
:10289000239AE31A9A420DD91300C84622005F46D4
:1028A00099460134434631002020A8472200E31B0B
:1028B0009945F6D8200017B03CBC90469946A246F0
:1028C000AB46F0BD249B5B0700D5A4E02C4B9A4699
:1028D00003230793249BD8469B0719D1079B239971
:1028E0008B4200D3ECE15A469B1A9846239B9946AB
:1028F0003B0031002020541CA84743461B192200EE
:102900009945F5D8239B5B441C00079BE31A984626
:10291000B14642465646BA462F00079C013C551C1C
:10292000305D53464946B8472A00002CF6D1079B34
:102930003D0043441C00249B4E469B07BAD55B4692
:10294000239AE31A9A42B5D91300D04622005F4673
:1029500099460134434631002020A8472200E31B5A
:102960009945F6D8A6E7C046FFFFEFFFFFFFEF7FD0
:1029700065CDCD4165CDCDC180842E410000E03FC5
:10298000D0900010249BD8469B0716D1239B042B84
:1029900000D897E11C1F5C44B8465A4637002E0009
:1029A0002500541C434639002020B0472200AC4289
:1029B000F7D135003E004746A046CE4BB9464246C9
:1029C000370004249A462E005346013C551C185DDE
:1029D00039004B46B0472A00002CF5D14446249BD1
:1029E000350004343E009B0700D463E75B46239A1E
:1029F000E31A9A4200D85DE71300C84622005F46FA
:102A000099460134434631002020A8472200E31BA9
:102A10009945F6D84EE7B84B9A460423079359E7F1
:102A2000249B5A460493239B31000393229B280046
:102A30000293209B219C009301943B0000F064F9D9
:102A4000040037E74B46202B35D0631E98464B4693
:102A50000A2150465C1C01F069F94A46079B303157
:102A6000995450460A2101F061F98146002800D1AD
:102A7000B6E0079B9A463B00A2444746A84625007D
:102A80004C46B14656469A4610E020000A2101F015
:102A90004DF93031317020000A2101F047F9013F32
:102AA000013504000136002800D194E0202DECD13E
:102AB00045464E4657460323249A1340012B35D0F2
:102AC00020229246A8E600220A980B998B4B01F02F
:102AD000E3FB002800D03DE65346002B02D0DB0785
:102AE00000D437E601239C46E24433E6229B092BBF
:102AF00000D8F2E00122302391460EA80370229BF9
:102B000007905C1E2F32093B494604E042540131D4
:102B1000013C202901D08B42F8D1794BE2009B186F
:102B20001A685B68894608920993DEE52024239B96
:102B3000002B47D00D9B002B03D1249A0C3313425A
:102B400002D0239B013B2393239BA3423AD9202C01
:102B500000D1BDE0302221001800079B1B19013174
:102B60001A7088422DD001332029F8D15B468A465D
:102B700008936DE6209A219B0020002101F019FBAB
:102B80000123209021910D93A1E5621C92462D22F4
:102B900007990A5540E6002208980999574B01F019
:102BA00089FB002800D0EBE50123A44623409C4488
:102BB00063460C93E4E5434601330C9300239A46A5
:102BC000C8E5239C0123202C00D018E61F339A4629
:102BD0005B4608933CE62C004E464546B8465746B1
:102BE000202C00D167E742464046079B11191B196C
:102BF0003022002807D001341A70202C00D15AE767
:102C000001338C42F7D1631C99462E23079A135542
:102C1000B6E545464E464EE7249BD8469B0715D160
:102C2000239B032B52D9DC1E5C44B8465A4637001E
:102C30002E002500541C434639002020B0472200B6
:102C4000AC42F7D135003E004746A0462D4BB94671
:102C50004246370003249A462E005346013C551C39
:102C6000185D39004B46B0472A00002CF5D1444688
:102C7000249B350003343E009B0700D41AE65B46D4
:102C8000239AE31A934200D314E61300C8462200A5
:102C90005F4699460134434631002020A847220070
:102CA000E31B9945F6D805E6249AA246120700D4FC
:102CB000B2E50122944607991F32E2440A55ABE57A
:102CC000D84625E6D84678E60892C1E5D846BDE75D
:102CD00020239A465B460893BAE5DA00084B9B1816
:102CE0005C681B6808930994002399460EAB229CEC
:102CF0000793FAE4D8900010C89000100000E03F5D
:102D0000E0900010D4900010F0B54E464546DE46E7
:102D10005746E0B59BB00A93249B81461C000B9359
:102D2000259B09911D000D920C9300220023200089
:102D3000290001F0B1FA002800D093E10B9A0C9B16
:102D400092469B468023289ADB001A400E9201D1BE
:102D50000623269356465B46334300D148E15B4643
:102D60005800C94B400D9C46604401F0BBFAC74A6D
:102D7000C74B01F04EFAC74AC74B01F023FA5B4636
:102D8000C64A1B031B0B1A4304000D00C44B110061
:102D90005046002201F00DFAC24AC34B01F039FA45
:102DA00002000B002000290001F00CFA01F0B2FA39
:102DB000804601F097FABD4ABD4B04000D0001F0BA
:102DC00028FA0022BB4B01F0FDF901F0A3FABA4A40
:102DD0000600BA4B2000290001F01BFA0400300065
:102DE0000D000F9601F07EFAB54AB64B01F011FACC
:102DF00002000B002000290001F0DBF902000B00AB
:102E000006000F0001F005FA320004000D003B003F
:102E10003000390001F0D6F9002210901191AA4B30
:102E20002000290001F0D7F90022A84B01F0CAF9CF
:102E300002000B002000290001F0CDF90022A44B74
:102E400001F0C0F902000B002000290001F0C3F9D5
:102E50000D008021320004003B000020C90501F074
:102E6000A8F902000B002000290001F0ABF90200D4
:102E70000B001098119901F0AEF90022874B01F078
:102E8000A1F9944A0F9B9446634400221B0501F06C
:102E9000C0F906000D0002000B005046594601F033
:102EA000FBF900280BD001235B429C46300029002F
:102EB0000022864BE04401F08EF906000D004346E7
:102EC000C62763339F42BF41289B7F4204371B05BF
:102ED00000D5ACE0279B00249F4200D2DC1B0223DC
:102EE000289A1A400E9203D07B427B415B421C40E1
:102EF0004346002B07D05046594632002B0001F0C4
:102F00006AF982468B46002200230B980C9901F047
:102F1000C3F9002800D0A0E0289A6F4B0394134017
:102F20000493269B524602935B46099900920193B3
:102F300048460A9B0D9AFFF785FB0400002F4FD0EF
:102F4000289B65209B066CD4631C22009A46099935
:102F50000A9BC8474346DA179D18DB0F98467B1E2D
:102F600055409B46002412AF02E03400202E0DD0C5
:102F700028000A2100F0DAFE661C30313C1921706D
:102F800028000A2100F0D2FE051EEED1052306938B
:102F90005B460593002304930A330393434601964B
:102FA000099E02930A9B0097524631004846984674
:102FB000FFF73EFA0E9B0400002B11D00D9F279ABD
:102FC000C31B9A420CD9279B4D46020099460134F7
:102FD000434631002020A8472200E31B9945F6D83C
:102FE00020001BB03CBC90469946A246AB46F0BDC3
:102FF000289B56465D461B0515D500239846269A04
:103000000023424503DD130042469B1A013B2693F1
:103010008023289ADB001A43002328920027984631
:1030200058E7203890E700230427984652E72B0002
:103030003343E4D0294A2A4B5046594601F032F92D
:10304000002817D1269B002B00D143E70E9B5A1E68
:103050009341269AD31A26933CE7802109065944C6
:103060008B4659E78022120694460C9BA246634485
:103070009B4667E600221B4B5046594601F00CF96F
:103080000028BCD1DEE7C04601FCFFFFFB799F5062
:103090001344D33FB3C8608B288AC63F0000F03F7B
:1030A0000000F83F61436F63A787D23F71A379099E
:1030B0004F930A400000E03F1655B5BBB16B02408C
:1030C000EF39FAFE422EE63F00002C40000024407B
:1030D00000001840FF030000FFF7FFFF2D431CEB2B
:1030E000E2361A3F80842E41F0B54546DE4657460B
:1030F0004E46E0B5A1B01D002A9B09920B93A24A4F
:10310000A24B0A9008911A60002900D187E300239E
:103110009B469F4B2C009A465D46207800280CD099
:1031200025281DD06E1C2A00099B0A9D0899013490
:10313000A847207835000028F2D10999AB462A002B
:103140008D4200D34A1E099B089900200A9CA04783
:10315000584621B03CBC90469946A246AB46F0BDCD
:103160001023621C9846083B9C461678043B9946FF
:10317000023B9B463300203BDBB2002701211400B9
:10318000102B0CD850469B00C3589F460F4301326A
:10319000167814003300203BDBB2102BF2D9330039
:1031A000303B092B00D8B5E1002398462A2E00D1E8
:1031B000A6E200239B462E2E00D1C0E13300683BDF
:1031C000DBB2122B18D8734A9B00D3589F46634634
:1031D00001321F43DCE7434601321F43D8E74B4629
:1031E00001321F43D4E75B4601321F43D0E78023FF
:1031F0005B0066781F4301343300253BDBB2532B61
:103200000FD8654A9B00D3589F466678682E00D138
:1032100088E280231F433300253BDBB20134532B6C
:10322000EFD96F1C2A00099B0A9D08993000A84716
:1032300001343D0071E766786C2E00D16CE280238A
:103240005B001F430134D7E780239B0066781F4350
:103250000134D1E70B9B1A1D1B680E920B935B4642
:10326000002B00D12BE20B9A10781600002804D115
:1032700000F0A4FC013B002B03D001363278002A79
:10328000F8D10B9BF31A0C938023DB003B4099464B
:1032900003D00C9B5B4500D9ABE202233B400F936C
:1032A00000D1B3E100281ED04B46002B00D1D0E165
:1032B0005B465F190B9BA3465E1BB1462A00099C27
:1032C0000A9E09E023000899551CB0474B46585DFB
:1032D000002800D1CEE12A009742F3D15C463D00A0
:1032E0000F9B002B14D00C9A904511D943465819C6
:1032F000099B861A98462A00A1460A9F089C013518
:10330000434621002020B8472A00B542F7D14C4659
:103310000E9B01340B9300E70B9B1A1D1B68904614
:10332000002B00D1CEE1212217430B970F21002261
:1033300018AE8946A44602E00A0020290CD048466F
:103340001840C4B22700511C3737092801D830343F
:103350002700B7541B09EFD164460B9B01910693DC
:10336000082305935B4604931023039300232A004C
:1033700002930096099B08990A98FFF759F843466B
:10338000050001340B93C8E6E93000105417002003
:10339000E88E00102C8F0010788F0010782E00D14E
:1033A000C5E1582E00D12FE26F2E00D131E3622EFD
:1033B00000D126E210233A009A430C92692E01D0E4
:1033C00000F01EFC0A230E937B0500D5B7E1802791
:1033D0000C9BBF001F4000D0B8E21A0080235B00A6
:1033E0001A40914600D06EE30C9B5B0601D500F0BD
:1033F000F1FB0C9B0B9A1B0600D4C1E30021535E2A
:103400000432D90F14910B92DA179F185740002BF2
:1034100009D10C9910330A009A4313000A000C9347
:10342000520500D5DEE30C9A6123920600D54123B4
:10343000DBB218AE0A3B16940F934C461595B14675
:103440000E9E0EE03033DBB24A4638001355310091
:1034500000F06CFC071E00D1FDE12C00202D00D1F6
:10346000F9E13100380000F061FC651CCBB209299C
:10347000E8D90F9A94466344DBB2E5E7462E00D1C3
:10348000B4E107220B9B0497073393430132944620
:103490009C4462460B92424603925A4602921A6834
:1034A0005B680899009201930A982A00099BFFF72C
:1034B000C9F80134050030E66E1C2A00099B0A9DFC
:1034C00008992520A8470134350026E6BB0700D51A
:1034D000D2E04346012B00D888E3099B6F1E474486
:1034E00098462A00A1460A9D089C561C4346210086
:1034F0002020A8473200BE42F7D14C460B9B320039
:103500001F1D1878751C099B08990A9EB047013445
:103510000B9702E6002332009E00F6180134760075
:10352000B6182278330011003039303B0929F3D91D
:103530009846002316009B462E2E00D03EE68023A0
:103540006678DB001F433300303B621C092B11D827
:10355000140033005A469600B61801347600F61867
:103560002378320019003039303A0929F3D91E0086
:10357000934623E62A2E00D181E114001EE6202383
:1035800032009A43472A04D180231B011F430223A0
:103590009E43452E01D120231F4307220B9B073357
:1035A0009343013294469C4462460B921A685B68CE
:1035B000100019000C900D9100F081FE002800D041
:1035C0008CE00C980D990122CA4B524200F072FE19
:1035D000002800D082E00C980D990122C64B52427F
:1035E00000F05AFE002879D1434603935B460497C6
:1035F000029308990C9A0D9B0A98009201932A0055
:10360000099BFFF781FB0134050086E50C990B004F
:103610000133884500D8EBE243462A005F190C9439
:10362000089D0A9C7F1A561C099B29002020A04750
:103630003200BE42F7D14346350001330C9C0C9357
:103640000B9B1878002800D162E64B46002B00D077
:103650002EE62A000B9BA3465F1BB9460A9E089CD8
:10366000099F3B002100551CB0474B46585D2A007E
:103670000028F6D15C4633E60B9B08991A1D187892
:103680009146099B2A000A9FB84743466E1C454451
:10369000012B00D8AEE2A3463200A846089C099E42
:1036A0000A9D571C330021002020A8473A004745B7
:1036B000F7D15C464B463D000B9301342DE50123C9
:1036C0005B42D0E5102239009143113211430B9136
:1036D0007A0500D42AE6002118AE3EE6434603935D
:1036E0005B460497029308990C9A0D9B0A980092E6
:1036F00001932A00099BFEF7A5FF013405000CE5A4
:103700000B990B00096804338846002900DAB0E001
:1037100056780B93541C4CE5C0239B00A6781F439E
:10372000023469E5C023A6781F43023464E5102300
:103730000E930C233A009A430C927B0502D5012389
:103740009A430C92692E00D141E6642E00D13EE6E8
:1037500080270C9BBF001F4000D09EE01A008023F2
:103760005B001A40914600D070E10C9B5B0600D5CF
:103770001FE20C9B1B0600D408E20B9B1F8804333E
:103780000B93002F09D10C9910230A009A431300C0
:103790000A000C93520500D5D4E00C9A61239206DE
:1037A00000D54123DBB218AE0A3B15940F934C466B
:1037B0001495B1460E9E0CE03033DBB24A46380019
:1037C0001355310000F0B2FA071E2BD02C00202D2B
:1037D00028D03100380000F0A9FA651CCBB20929C5
:1037E000EAD90F9A94466344DBB2E7E720231F43EC
:1037F00047E65B460C9302233B400F9300D051E514
:1038000004E702230E9394E70C233A009A431433FF
:103810001A4310230C920E937B0590D498E7374BF4
:103820000A9374E44E462A00159C149D0C9B069343
:10383000434605935B4604930E9B03930023029338
:1038400001922A000096099B08990A98FEF7F0FD5C
:103850000134050061E44E462A00169C159D0C9B20
:103860000693434605935B4604930E9B0393149B78
:10387000E5E702210F4341464942884648E70B9A53
:10388000A678136802349B46DB435946DB17194080
:10389000130004338B460B9390E407220B9B0733F2
:1038A0009343013294469C4462460B921A685F68C7
:1038B000130091463B4308D10C9910330A009A43F8
:1038C00013000A000C9352053CD40C9A6123920613
:1038D00000D577E1DBB20A3B0F93434600221693F3
:1038E0000E9B18AE1495159415004C469846B1469B
:1038F00019E0C046FFFFEF7FFFFFEFFFE12300105D
:103900003032D2B24B4620005A553900424600238D
:1039100000F04EFA0F000400014300D18FE03500A3
:10392000202E00D18BE0424600232000390000F019
:103930003FFAD2B26E1C092AE2D90F9B9C46624420
:10394000D2B2DFE7002318AE1A006FE707220B9B05
:1039500007339343013294469C4462460B921A68A3
:103960005B68D9171291139112981399060056406B
:1039700010960E005E401196109E119F361A8F41D0
:10398000D90F1096119717911A430BD10C99102348
:103990000A009A4313000A000C93520502D500272F
:1039A00018AE41E00C9A6123920600D50CE1DBB21F
:1039B0000A3B0F93434616930E9B18AE002298467F
:1039C0003300149515941600109C119D994611E032
:1039D0003032D2B24B4620009A552900002342468D
:1039E00000F0E6F9030004000D000B4314D03E0084
:1039F000202F11D0424600232000290000F0D8F9E2
:103A0000D2B2771C092AE3D90F9B9C466244D2B2FA
:103A1000E0E708230E938CE64E46169B1094119512
:103A20009846159C149D0C9B0693434605935B4654
:103A300004930E9B01970393179B029301E7169B38
:103A40003200149D159C98464E46EFE60B9B1A1DBE
:103A50001B6815929946002B0CD10C9910330A0063
:103A60009A4313000A000C93520503D5002318AEA5
:103A70001A006DE00C9A6123920600D5A6E0DBB235
:103A800018AE0A3B14940B934C460F95B1460E9E0C
:103A90000CE03033DBB24A462000D355310000F051
:103AA00045F9041E50D02F00202D4DD031002000AC
:103AB00000F03CF97D1CCBB20929EAD90B9A944657
:103AC0006344DBB2E7E70B9B1A1D1B681592D917FD
:103AD0005A184A409146DA0F1692002B0CD10C99D5
:103AE00010330A009A4313000A000C93520503D5C1
:103AF000002318AE1A0052E00C9A6123920667D494
:103B0000DBB218AE0A3B14940B934C460F95B146AA
:103B10000E9E0CE03033DBB24A462000D355310014
:103B200000F004F9041E36D02F00202D33D03100D0
:103B3000200000F0FBF87D1CCBB20929EAD90B9AD2
:103B400094466344DBB2E7E74E462A00149C0F9D7F
:103B50000C9B0693434605935B4604930E9B03938D
:103B6000002302930192099B2A00009608990A9863
:103B7000FEF75EFC159B05000B930134FFF7CDFAB1
:103B800013680432D90F14910B923DE40B9B1F680C
:103B900004330B93F5E54E462A00149C0F9D0C9BB5
:103BA0000693434605935B4604930E9B0393169B33
:103BB000D7E70B9B1F7804330B93E2E500230C93AC
:103BC000FFF762FB412385E64123F0E6412356E7F8
:103BD000412395E70B9A137804320B92002214923A
:103BE000FFF712FC002318AE1A0038E62E0085E419
:103BF0000C9327E54B4635000B930134FFF78DFA04
:103C0000063B17000E93642E00D092E5530500D5B5
:103C100095E5FFF7DCFBC04600B585B000931300C7
:103C2000012202900391524202A90248FFF75CFA76
:103C300005B000BDE523001010B5094A84B0146832
:103C4000002C09D0012200910300524203A905482B
:103C5000A047012004B010BD00F0C6FF0020F9E726
:103C600054170020F523001001480421014B184788
:103C7000F0030020993C0010142310B501001888AF
:103C800004331B88984710BD162310B5010018880F
:103C900002331B88984710BDF8B54746CE4680B51D
:103CA0000F1E19D014239946043304000025012661
:103CB00098464B461888434621681B88984701C49C
:103CC000431E9841013540420640AF42F1D13000D9
:103CD0000CBC90469946F8BD0126F8E7124A936F4E
:103CE0009B0815D29066D166002905D0FFE7FFE753
:103CF000FFE7516F106F704704B580210906C217A6
:103D00005140002800D0C84305F03AF8002104BD16
:103D1000F0B5146E556E576F166FFFF7E3FF14661C
:103D2000556657671667F0BD000000D0114A936FC3
:103D30009B0813D210665166002905D0FFE7FFE704
:103D4000FFE7516F106F704704B5002801D00020C5
:103D5000C04305F015F8002104BDC046F0B5146E4F
:103D6000556E576F166FFFF7E5FF14665566576778
:103D70001667F0BD000000D094464E4A926F92083C
:103D8000624601D230E0C046F0B54A4EB56F6D08CC
:103D9000FCD3346E756E776F366F00F025F894465D
:103DA000444A14665566576716676246F0BDC046BA
:103DB0009446404A926F9208624601D258E0C0464B
:103DC000F0B53C4EB56F6D08FCD3346E756E776FF1
:103DD000366F00F04DF89446364A146655665767BC
:103DE00016676246F0BDC046002B24DB11D00029C7
:103DF0003EDA00B5C943404200D1013100F038F845
:103E0000C943404200D10131DB43524200D101336A
:103E100000BD002AEBD1002801D1002905D00020E7
:103E2000C90FC90701D1C043410800B504F0A0FF84
:103E30000022002300BD00B500290ADBDB4352420B
:103E400000D1013300F014F8C943404200D10131E0
:103E500000BDC943404200D10131DB43524200D191
:103E6000013300F005F8DB43524200D1013300BDBD
:103E7000002923D1002B18D1002A0CD0BC460D4FAD
:103E800038667A6600210023FFE7FFE7FFE77A6FD5
:103E9000386F67467047002801D00748010000B519
:103EA00004F066FF0022002300BD02000B0000208A
:103EB00000217047000000D0FFFFFFFF002B00D063
:103EC000BFE0130C28D1002AE7D080B4114F396627
:103ED0007A66FFE7FFE730B4040C7B6F396F1B0491
:103EE00023433B667A66FFE7FFE7FFE7C04684B2FD
:103EF0007B6F3D6F1B0423433B667A66FFE7FFE75A
:103F0000C04600232C042D0C7A6F386F00196941CC
:103F1000B0BC7047000000D0F0B594460025140EE8
:103F200001D112020835140F01D112010435940F8A
:103F300001D192000235D40F01D152000135D40BCA
:103F40000134254F7C66254C3C660E0C93B2FFE78E
:103F5000FFE7FFE73C6F6643360C7703BE467343CB
:103F6000DF0B5B04C01AB941130C7343DB18C91A89
:103F7000CE086643360CB64493B273431F0F1B0141
:103F8000C01AB941130C73431F0B1B05C01AB9416A
:103F9000860D8F023E436643360C092D24DB520A00
:103FA0007243801A7703460A6643360C16235B1B5E
:103FB000DE40DF40BF1964466643821B704604350D
:103FC00006330100D940A840C01900D30131A242F4
:103FD00006D20023F0BD0000000000D0FFFFFFFF6D
:103FE000121B0130F3D3F1E709277F1BFE40644623
:103FF000A2B27243801A00D20139220C7243130C10
:104000001204821A99410B007046043513370100DF
:10401000F940A840801900D30131002B02D1A242FF
:104020000AD2F0BD013000D30131121BFAD2013B9C
:10403000F8D1A24200D2F0BD013000D30131121BF1
:10404000F7E7F0B51C0C00D080E00CB400251C0A8A
:1040500004D11B02160E3343120208351C0B04D187
:104060001B01160F3343120104359C0B04D19B0036
:10407000960F334392000235DC0B02D192185B415C
:1040800001351C00971864410134464F7C66464C4C
:104090003C660E0CFFE7FFE7FFE7C0463C6F664358
:1040A000360C7703BE4697B27743C01B00D2013966
:1040B000C01B00D201399FB27743C91BC91B170C23
:1040C00077437E04FF0B801BB941CE086643360C54
:1040D0000C2D33DBB644120B1F053A431B0B97B272
:1040E0007743C01B00D201399FB27743C91B170C1D
:1040F00077433E043F0C801BB941860D8F023E433F
:10410000664329277F1BFE400C3D7746AF40BF1911
:1041100030BCA2B2ABB272437343801A9941220CF5
:104120007243130C1204801A994102000B000137EC
:10413000001BA941F9D2781E0021F0BD0C277F1B7E
:10414000FE4077467F0BAF40FF19E0E700245D1C7F
:1041500007D0144F7D663966FFE7FFE7FFE7FFE70B
:104160003C6F95B29EB265436643401BB141150C4E
:104170001E0C6543664336042F0C3E432D04401B42
:10418000B141994204D202000B0020000021F0BD91
:1041900001D19042F7D3801A994101349942F2D368
:1041A000F6E70000000000D0FFFFFFFF484041405D
:1041B000484018B41B4B5B68FC46019308BD04DF04
:1041C0000744001018B4174B1B68FC46019308BD48
:1041D00000DF114400109446134A926F920809D2EE
:1041E000624618B40F4BDB68FC46019308BD0CDF38
:1041F000C94600100C4AF0B5146E556E576F166F15
:104200006246FFF7EEFF084A146655665767166761
:10421000F0BD18B4034B9B68FC46019308BD08DF52
:104220006D450010B8170020000000D0FFB55040C9
:104230004240504059404B40594000E0FFB5154FB7
:104240004C00640D03D0BC4204D10C0314D80020F0
:10425000090D09055C00640D03D0BC4204D11C03A8
:104260000AD800221B0D1B0501264B4009D44B40E8
:1042700003D58B4200D18242FFBD9942FCD19042CE
:10428000FFBD0B43DB1803431343F5D0C943491863
:10429000FFBD0000FF07000000B5FFF7CFFF804122
:1042A00000BDC04600B5FFF7C1FF01D9002000BD29
:1042B000012000BD00B5FFF7B9FF804100BD01201E
:1042C00040054A00121804D85A00121801D80020DC
:1042D000704701207047002070470000002100282F
:1042E00005D17047C1174840401AFAD0C90713B525
:1042F000064B1B6898470CBC441CA2401005120BCF
:104300000349091B09051943114310BD7817002003
:104310001F04000010B54C00620D8023D218DB0092
:10432000D21A5B057E2A10DD9E3A13DACC170903F8
:10433000490819435242D140640001341532202A01
:1043400005DAD0400843604310BD002010BD084688
:10435000604310BDC80FC018013810BD18B4044B1D
:104360005B6AFC46019308BD24DF79480010000019
:10437000B8170020132370B51C78012C15D010DD60
:104380000F48FFF781FC0F4D01008022280000F04C
:1043900095FB022C06D00C48FFF76EFC0B4B186007
:1043A00070BD084D0A4AAA64F5E7064D084A29007F
:1043B0002B00803104C38B42FCD1AA64EBE7C046DA
:1043C00053440000B81700204C3300007817002039
:1043D000D543001007B5604601880A0A0230DF2A7B
:1043E000FAD1C9B2820804D302884088000410437D
:1043F00000E00068014A5050039007BDB817002044
:104400000FB403BC0CBCF0B50124E407634000E02A
:10441000F0B50C0DCF0F661E3605891B640503D35E
:10442000C943404200D30131640D03D0661CF60A33
:1044300007D0E41B00207F00791C89078912803C8B
:1044400024031D0DDF0F6E1E36059B1B6D0503D368
:10445000DB43524200D301336D0D03D06E1CF60ACC
:1044600007D0ED1B00227F007B1C9B079B12803D29
:104470002D032F1B661B58D4A446202E46DA203766
:104480001400BC401D00BD40F24033412A43801857
:104490005941CB0F05D0C943C0430022644250416B
:1044A000514162464D0D28D10D0D07D100281FD076
:1044B000241940414941013A0D0DF9D0640006D359
:1044C000013000D30131002C01D140084000013AF5
:1044D0000BD4941CE40A04D112051144DB071944DF
:1044E000F0BDD907204B194300E0D9070020F0BDEB
:1044F0000029DDD1002CDBD1F0BD0132C607400818
:10450000CD0728434908002EE1D0D9E73C2E29DA0F
:10451000203E40371400BC4000D00124F240144338
:104520001A00BB401C43D317ACE7AC46202F08DA77
:1045300020360400B4400D00B540F840394128430E
:10454000A5E73C2F0CDA203F40360400B44000D0F1
:104550000124F84004430800B1400C43C117EAE7C6
:1045600010001900002494E70000F07FF0B50C0D56
:10457000661E3605891BE60A6405640D02D0651CBB
:10458000ED0A04D0002001210905803C2403A44643
:104590001C0D671E3F05DB1BE70A6405640D02D096
:1045A000651CED0A04D0002201231B05803C240376
:1045B0007740644497B484B296B27443070C7E4348
:1045C000150C6F4380B26843361802D301200004F3
:1045D0003F183004350C00197D41844688B29AB2E8
:1045E00050430C0C62431F0C7C438EB27E439219E5
:1045F00002D301263604A4191604170C3618674195
:1046000001BC81B29AB25143040C62431B0C5C435F
:1046100080B25843121802D3012000042418100459
:10462000130C401863412D185E410020474106BC21
:1046300088B293B258430C0C6343120C544389B2B2
:1046400051435B1802D301210904641819041A0CA0
:10465000091862416D1856410020474118BCF90203
:10466000720D1143F0026A0D1043ED020A0D03D1E1
:104670006D1940414941013B124E9B1B7600B342EC
:104680000ED26D0007D301300026714166463543D6
:1046900001D1400840001B05C918E4072144F0BDC2
:1046A0000BDA013306D1013004D101314F0D01D0B5
:1046B0004908F2E7E1070020F0BD0136310500208E
:1046C000EBE70000FF030000F0B51C0D671E3F057F
:1046D000DB1BE70A6405640D02D0661CF60A04D0F1
:1046E000002201231B05803C2403D0252D06002633
:1046F000F6432E661E096E66CE0FF619B4464900C3
:104700004F0D02D07E1CF60A03D000200021403F4E
:104710003F033E1BB600B444013F7F05C91B490857
:104720002E6F013676089C02950D25437543ED13D7
:104730007543AD1301356D10F603761B0CB4CC0236
:10474000450D2C43A2B2B3B25A43270C7B43350C20
:104750006F43A4B26C431B1902D3012424043F19F4
:104760001C041D0CA4187D4124196D41009A91B2BE
:10477000ACB26143170C7C432B0C5F4392B25A439B
:10478000A41802D301221204BF182204230C5218C9
:104790007B41019C6C431B19520ED9010A43440111
:1047A000A01A81B2B2B2514303145A43360C734378
:1047B00087B27743D617D21900277E4136049B195A
:1047C0001704160C7F185E417316ED18F3010026CE
:1047D00080337541A90F06D16400690AE8055B0AB8
:1047E000184309D22FE00422944480337541A90A6A
:1047F000A8059B0A184326D3404149412404009A46
:10480000019B0D005543641B4343E41A95B286B2E5
:104810007543170C7E43030C5F4392B25A43B6189C
:1048200002D301221204BF183204330C52197B4107
:1048300052429C41002C02D40022013051414008D8
:10484000CA071043490802B06246D7079210084BC6
:10485000D218084B9A4203D212058918C919F0BD23
:104860000020002A01DC3900F0BD01331905F5E70D
:10487000FD030000FE070000002200B5203200F01A
:1048800004F8080000BD000000220B150AD410B582
:10489000944600F031F81414013400DA0021CB17EB
:1048A000144C20470020002170476244343A0CD455
:1048B0000C2A07DA04009140904052422032D44042
:1048C000214310BDD843D94310BD203207D40C4634
:1048D0009440524220321141D040204310BD080084
:1048E000C917203203D452422032104110BD1800A3
:1048F000190010BDAB4800100A0DCC0F531E1B054C
:10490000C91A520503D3C943404200D30131520DA5
:1049100003D0531CDB0A07D0121B00206400611C6B
:1049200089078912803A1203014BD21A704700009E
:10493000FF03000051434343C9188C46110C83B256
:104940004B4310B4040C614392B280B250436243B3
:104950001C041B0C001910BC59411304120CC01884
:1049600051416144704700004840414048400E4B6F
:104970005B6818470C4B1B6818470C4A936F9B08E1
:1049800002D2094BDB681847F0B5146E556E576FAD
:10499000166FFFF7F6FF054A1466556657671667E8
:1049A000F0BD014B9B681847B8180020000000D0EC
:1049B000491A002808D1084670470000C10FC907EE
:1049C00000D54042002817D0F44603B40B4B1B68B7
:1049D000984706BC81409E384042803107D20B0682
:1049E00007D04900490AC005104308436047013019
:1049F000F8E7490A8902F5E77047000078170020B8
:104A0000014B5B6A18470000B8180020132310B54B
:104A10001C781348FFF738F9012C0BD004DD010096
:104A20008022104800F04AF80F48FFF725F90F4B95
:104A3000186010BD0B4C01005422200000F03EF81D
:104A40000B4B6365A365E36523666366A366E36654
:104A500023676367A367E3672362E361E4E7C04614
:104A600053460000B81800204C330000781700208F
:104A7000754A001007B5604601880A0A0230DF2A2D
:104A8000FAD1C9B2820804D30288408800041043D6
:104A900000E00068014A5050039007BDB81800209C
:104AA00001480421014B184700040020993C0010E4
:104AB000014B1B681847000000040020014B5B6895
:104AC0001847000000040020F8B54746CE4680B5E0
:104AD000437C80460E001700002B48D0002A2EDDB4
:104AE000274B012500240020994604E02B000134C7
:104AF00001359F4219DD002C3ED0631EF35C0D3B57
:104B000059425941CBB2325D0A2AEFD1002BEDD187
:104B1000844226DC434648461B68022198470134FC
:104B200028002B0001359F42E5DCB8420BDBF6196B
:104B3000013E33780D3B59425941434619740CBC30
:104B400090469946F8BD4346391A3018F6191B6845
:104B5000013E984733780D3B5942594143461974F9
:104B6000EDE74346211A1B6830189847D2E70368DF
:104B7000110030009847E2E743461B7CC3E7C0467C
:104B800090910010F0B5C6460B6800B506000D0008
:104B90005A1C802B05D02A60ED182E7104BC90465B
:104BA000F0BD0F4B1C68002C16D00B1D0D4F984606
:104BB00002E0E468002C0FD02368002BF9D03B689A
:104BC000002B01D0A342F4D120002A684146FFF710
:104BD0007BFFE468002CEFD101220023DBE7C04615
:104BE000481300204C130020F0B5DE4657464E46D1
:104BF0004546E0B583B0060003F04EFBD0231B060C
:104C00001C682D4B070001A918009B4604F0C0F852
:104C10008046002808D1019B64B29C4204D05846CB
:104C200004F0C6F801239846B9467B1C3ED0234BBE
:104C30001C689A46002C32D0214D02E0E468002C1A
:104C400017D02368002BF9D02B68002B01D09C4291
:104C5000F4D120004A463100FFF736FF6B460A22A6
:104C600020001A7101A90122FFF72EFFE468002C31
:104C7000E7D14346002B15D153461C68002C06D0C3
:104C80006368002B00D09847E468002CF8D1380006
:104C900003B03CBC90469946A246AB46F0BD4346A5
:104CA000002BF4D0584604F05BF8E5E7300003F041
:104CB000F3FA8146BBE7C046900C00204813002061
:104CC0004C130020F0B54646DE465746C0B5904628
:104CD00082B00E0000282CD11A4B1B4D1A685B685D
:104CE0001A4F9A461A4B01929B465B461C68002C51
:104CF00005D115E0A34205D0E468002C10D02B6844
:104D0000002BF7D1A368002BF6D04146300098471E
:104D10000028F1DD02B01CBC90469A46A346F0BDC7
:104D20007B6A9A4508D8BA6A01998A4201D29A45A3
:104D300002D001204042EDE701200021FCF788FC71
:104D4000D3E7C046A08E00104C1300200040054061
:104D500048130020F0B54646D6464F46C0B5013848
:104D600082B088461600012840D8D0231B061C6854
:104D7000204B01A918009A4604F00AF8071E07D133
:104D8000019B64B29C4203D0504604F011F80137F5
:104D9000B146731C25D0184B1C68002C14D0174D3D
:104DA00002E0E468002C0FD02368002BF9D02B68B8
:104DB000002B01D09C42F4D120004A464146FFF727
:104DC00083FEE468002CEFD1002F06D1300002B042
:104DD0001CBC90469946A246F0BD504603F0C0FF69
:104DE000F4E7404603F058FA8146D4E701267642BC
:104DF000ECE7C046900C0020481300204C13002024
:104E00000A4A1368002B05D10CE01A00DB680C324B
:104E1000002B07D09842F8D1002902D1C368136053
:104E2000C16070470029FCD01060FAE748130020E9
:104E3000F0B54746CE46D02380B52D4EA5B01B0613
:104E400007008846300003A91C6803F0A1FF051E77
:104E500007D1039B64B29C4203D0300003F0A8FF4B
:104E600001358422002103A8FFF722FE43463A00C1
:104E700003A92048FEF7D0FE039B8046002B15D1E6
:104E80001D4B1C68002C06D06368002B00D098478F
:104E9000E468002CF8D1002D02D0300003F060FF50
:104EA000404625B00CBC90469946F0BD124B1C689C
:104EB0009946002C18D0114F02E0E468002C11D064
:104EC0002368002BF9D03B68002B01D0A342F4D11A
:104ED000039B20001A0004A90193FFF7F5FDE46885
:104EE000002CEDD14B461C6800230393CAE7C04653
:104EF000900C0020854B0010481300204C1300201C
:104F00000FB400B583B004A901C90191FFF790FF68
:104F100003B008BC04B0184710B500F08DF910BDFF
:104F2000F0B5CE464746040080B583B0FCF784FB5D
:104F30002600002736184F41B94233D830D01B4BDA
:104F4000B84699461A4D4B461C68002C05D116E010
:104F5000A34205D0E468002C11D02B68002BF7D1B8
:104F6000A368002BF6D0012101A898470028F1DDA5
:104F70006B46187903B00CBC90469946F0BD0D4BBA
:104F80005A6A904507D89B6AB34201D2904502D035
:104F900001204042EEE701200021FCF759FBD2E757
:104FA000B042CCD901267642F717C8E74813002053
:104FB0004C130020004005407047C0460022014BC2
:104FC0001A707047B3170020012070474B790020FA
:104FD000FF2B00D070478B79002BFBD1CB79012BB5
:104FE000F8D1082AF6D98A78014B09301A70F1E70E
:104FF000B317002070B5002915D1154953791079E0
:1050000009781B0203430020994200D070BD5378F9
:10501000012B0AD0022BF9D1002064220021FDF7D8
:1050200081F90120F2E70120F0E7D4789178240299
:105030000C430500E20502D5620A93401D000548B5
:10504000FEF71AFE7F210300214028009847C04642
:10505000B317002055420000012303700048704739
:10506000949100104A780B7812021A438B7810B58D
:105070001B041A43CB781B0613439622D20093429B
:1050800000D010BD0348FEF7F7FD00210300080023
:105090009847C0465542000070B5184C82B00500D4
:1050A0000E00200001A903F073FE002808D1D023D0
:1050B0001B061B68019A93421CD0200003F078FE67
:1050C000002001F091FE002807D103256D42200049
:1050D00003F046FE280002B070BD002001F09CFEE7
:1050E0000028F2D029003200002001F0A3FE051EA6
:1050F000EBD0ECE703256D42ECE7C04680170020BB
:1051000010B5044B1878FBF7E1FAFA200021800073
:1051100010BDC046B417002010B5024B1878FBF73D
:10512000D5FA10BDB417002010B5064C00212000A0
:1051300003F02EFE002804D000F0A2FE200003F0B1
:105140000FFE10BD80170020F0B54F464646D646EC
:10515000C0B5364B82B007000E00180001A9994671
:1051600003F016FE002808D1D0231B061B68019A05
:10517000934241D0484603F01BFE002001F034FE6C
:10518000002831D00024002E33DD294B9A46984662
:1051900012E0002847D100F073FE002001F0CAFEA3
:1051A000002001F021FE002823D0002001F0FEFEA7
:1051B000002827D0A6421CDD0020351B01F0F6FE9A
:1051C0008542E6DC39192A00002001F06BFE05005B
:1051D00000F056FE002001F0ADFEFCF72DFA43462C
:1051E000641918605960E5E700200021104B186031
:1051F0005960484603F0B4FD02B01CBC9046994685
:10520000A246F0BDFCF718FA53460D001A685B6819
:1052100000218446074812184B419D42E9D8C9D164
:105220009445C7D9E5E70500CCE7C04680170020C4
:10523000B00D002020A1070030B5244B85B01B78AD
:1052400002F0C4F82248FCF7CBFD0120FBF7CEFCAE
:10525000FF23204C204920701840FBF75DFA20788E
:105260000121FBF721FA0520FBF738FA041E0CD0C8
:1052700000221A490520FBF779FA01211848FFF7A7
:10528000BFFD0124200005B030BDFBF7B3FE0500D3
:10529000FCF7D2F9FA220023920012184B419942EE
:1052A0000ED901225242D31701210291002101910E
:1052B0000C4928000091FBF7A1FE0028E2D0DCE7B2
:1052C0009942F1D19042ECD8EEE7C046B493001079
:1052D00080170020B4170020295100101951001028
:1052E0001004002001510010004870474C9200103B
:1052F00000487047F891001070B504001648037814
:10530000002B1CD0002C06D1C1241448144BA4003F
:105310004380048070BD052C1CD8124BA400E558B6
:1053200000230E48821CE95CDCB200290BD001335B
:1053300011800232132BF6D1CA24A400E9E711210F
:1053400002F0DEFADEE7C023013464009B001C4358
:10535000A4B2DEE70020DDE798170020201300202C
:105360000904000060920010F0B54E46DE46574634
:10537000454698238024E0B5724A6402D35885B02C
:10538000994623422CD0012223216F4B00205A54EE
:10539000DA706E4901F0D6FA80226D4B92021A65DE
:1053A0006C4B03934B46DB0620D480234A465B01BB
:1053B0001A4252D180234A46DB011A4200D096E0BD
:1053C00080234A461B021A4200D09FE04C4500D081
:1053D000B3E005B03CBC90469946A246AB46F0BD52
:1053E000102303934B460024DB06DED5554B9B6D03
:1053F0009846002B2BD0564B01269B4601230024B8
:1054000001279A4607E001347F00E4B25346013693
:105410001E40202C1BD043461F42F4D05B46514611
:105420009F6563085D00484B72429C460A40AD1878
:105430006D016544280000F0A5FB002871D14346AA
:105440000134BB4398467F00E4B2002BDED18023B9
:105450004A465B01039C1A42ACD01C430023394AE4
:1054600039481360394A00219360D3603A4A40308A
:105470009360D360394A9360D360394A9360D360B4
:10548000384A9360D360384A9360D360374A936058
:10549000D360374A9360D360364A9360D360364A0C
:1054A0009360D360354A9360D360354A9360D3608C
:1054B000344A9360D360344A9360D360334A936034
:1054C000D360F0229200FFF7F3FA314B314A00210A
:1054D0001A600020012201F00BFA80221C4B1203FB
:1054E0001A6580234A46DB011A4200D168E701228F
:1054F000042100201C4301F06BF91022144B1A65A3
:1055000080234A461B021A4200D15FE7012205218F
:1055100000201C4301F05CF980220D4B12011A653A
:1055200054E75346AA8AA97800200093002301F08B
:1055300037FA280000F04AFA81E7494616486140E8
:10554000FCF712FD00001150541300200000105011
:1055500000301150100001000800105010001050D1
:10556000180010502000105028001050300010502B
:10557000380010504000105048001050500010509B
:10558000580010506000105068001050700010500B
:105590005C170020800110507892001010B5012196
:1055A0000520FBF781F810BD10B50348002200214B
:1055B000203000F03DFA10BD541300208022024B31
:1055C0005202DA647047C04600201150F0B5C6465A
:1055D00000B5070000F0D4F90C23364D3649AB670F
:1055E0000520FBF799F840239846344C40220021CF
:1055F0002000FFF75DFA43460126A38380200023A5
:1056000022212F4A6670A2601360605401396354EE
:10561000023163544146A1873E212A4A63542A49F4
:105620006360E260A1620B60E262284A6362936099
:10563000D360274A20009360D360264A00219360FC
:10564000D360254A40309360D360244A9360D3608E
:10565000234A9360D360234A9360D360224A9360C5
:10566000D360224A9360D360214A9360D360214A79
:105670009360D360204A9360D360204A9360D360E4
:105680001F4A9360D3601F4A9360D360F022920058
:10569000FFF70EFA1C4B1D4A38001A6080239B0549
:1056A0002E64EB6490231A4AEA50FFF787FF04BC8C
:1056B0009046F0BD000011506953001054130020B3
:1056C0008400105000011050800010500000105055
:1056D00008001050100010501800105020001050FA
:1056E000280010503000105038001050400010506A
:1056F00048001050500010505800105060001050DA
:1057000068001050700010505C170020800110508D
:1057100010D001000B785B0602D14B78052B00D02E
:1057200070478A78014B1A60FAE7C04600001150B2
:10573000F0B54746CE4680B58B7848799C4607231E
:10574000CF780A790340BF07BF0F1B021343FAB299
:10575000614691467F2283B068460A406146C17126
:10576000C179654649B28846CE0F54002C48A1192C
:10577000490141188D704546ED43ED0F4D700025F0
:105780008B83CD708F774146AC4600292FDB254DAA
:10579000D100A846654697014144C719B9600D601C
:1057A000002A2FD02049D2008C466244A119490119
:1057B00041184A603F213F338B43494602292DD08F
:1057C0001A4FA41939686401CB183B60184B0019B3
:1057D000C160594080231B060B4349468D061D437B
:1057E0001560012003B00CBC90469946F0BD114DE8
:1057F000D100A846654697014144C719B9620D60BA
:10580000002A06D100237601801943600A4BC36049
:10581000E7E70749D2008C466244C7E75B00CFE761
:105820005413002084001050040010505C17002016
:1058300000001050800010500001105000231C4A3E
:1058400010B59360D3601B4A1B489360D3601B4A1A
:1058500000219360D3601A4A40309360D360194AA4
:105860009360D360184A9360D360184A9360D36002
:10587000174A9360D360174A9360D360164A9360C7
:10588000D360164A9360D360154A9360D360154A7B
:105890009360D360144A9360D360144A9360D360DA
:1058A000F0229200FFF704F9114A124B1A6010BD62
:1058B0000000105008001050541300201000105029
:1058C00018001050200010502800105030001050C8
:1058D0003800105040001050480010505000105038
:1058E00058001050600010506800105070001050A8
:1058F000800110505C1700207F2070B51500084013
:105900004000C909044C40184001201829001A0021
:1059100000F08EF8012070BD541300207F2010B5D8
:10592000084049B2002804D1CB43084ADB0F0133B9
:1059300093668022C90F40004018054940010818AD
:105940001201002100F048F810BDC046002011509F
:10595000541300207F2310B50B400BD0C909580009
:105960004018054B4001181800230022C37003495A
:1059700000F032F810BDC04654130020FFF7FFFFBF
:1059800080220D4B520410B51A600C4B0C491A6062
:1059900010008B689843FBD10A4C9C220021200008
:1059A000FFF786F88022002152010748FFF780F8B0
:1059B0000923636710BDC04600E0004000F00040CE
:1059C00000C000400000115000001050002303747C
:1059D000438283828361704710B58368002901D0B8
:1059E0001C682140002A11D08024E4001143224287
:1059F0000CD01A6822420BD10A4A0A401A60FFE70B
:105A0000FFE7FFE7FFE7FFE7FFE78368196010BDE7
:105A10007F2281780448CB091140044A9B009A58A0
:105A2000FCF7A2FAFFFBFFFF8C9200102404002079
:105A3000F8B5CE460023474680B583820133037410
:105A4000436804001B6881619946838B1E1C934246
:105A500000D9161CE37880251800471EB841B6B25D
:105A6000ED0040033543054301204340921BE370A2
:105A7000637892B26282002B52D0002A1FD1A023F9
:105A8000DB011D43394B1B6C4A468027384BBF0551
:105A900013401F436368A2681F6013685B055AD4F4
:105AA000344B2B401360FFE7FFE7FFE7FFE7FFE71B
:105AB000FFE7A3681D600CBC90469946F8BD8023A3
:105AC0005B011D43294B1B6C9B0702D4A3787F2BE2
:105AD000DAD9A38B191C934200D9111C80268BB2F2
